{
  "contractName": "Nft_init",
  "abi": [
    {
      "inputs": [],
      "stateMutability": "nonpayable",
      "type": "constructor"
    },
    {
      "anonymous": false,
      "inputs": [
        {
          "indexed": true,
          "internalType": "address",
          "name": "owner",
          "type": "address"
        },
        {
          "indexed": true,
          "internalType": "address",
          "name": "approved",
          "type": "address"
        },
        {
          "indexed": true,
          "internalType": "uint256",
          "name": "tokenId",
          "type": "uint256"
        }
      ],
      "name": "Approval",
      "type": "event"
    },
    {
      "anonymous": false,
      "inputs": [
        {
          "indexed": true,
          "internalType": "address",
          "name": "owner",
          "type": "address"
        },
        {
          "indexed": true,
          "internalType": "address",
          "name": "operator",
          "type": "address"
        },
        {
          "indexed": false,
          "internalType": "bool",
          "name": "approved",
          "type": "bool"
        }
      ],
      "name": "ApprovalForAll",
      "type": "event"
    },
    {
      "anonymous": false,
      "inputs": [
        {
          "indexed": true,
          "internalType": "address",
          "name": "from",
          "type": "address"
        },
        {
          "indexed": true,
          "internalType": "address",
          "name": "to",
          "type": "address"
        },
        {
          "indexed": true,
          "internalType": "uint256",
          "name": "tokenId",
          "type": "uint256"
        }
      ],
      "name": "Transfer",
      "type": "event"
    },
    {
      "inputs": [
        {
          "internalType": "address",
          "name": "to",
          "type": "address"
        },
        {
          "internalType": "uint256",
          "name": "tokenId",
          "type": "uint256"
        }
      ],
      "name": "approve",
      "outputs": [],
      "stateMutability": "nonpayable",
      "type": "function"
    },
    {
      "inputs": [
        {
          "internalType": "address",
          "name": "owner",
          "type": "address"
        }
      ],
      "name": "balanceOf",
      "outputs": [
        {
          "internalType": "uint256",
          "name": "",
          "type": "uint256"
        }
      ],
      "stateMutability": "view",
      "type": "function",
      "constant": true
    },
    {
      "inputs": [
        {
          "internalType": "uint256",
          "name": "tokenId",
          "type": "uint256"
        }
      ],
      "name": "getApproved",
      "outputs": [
        {
          "internalType": "address",
          "name": "",
          "type": "address"
        }
      ],
      "stateMutability": "view",
      "type": "function",
      "constant": true
    },
    {
      "inputs": [
        {
          "internalType": "address",
          "name": "owner",
          "type": "address"
        },
        {
          "internalType": "address",
          "name": "operator",
          "type": "address"
        }
      ],
      "name": "isApprovedForAll",
      "outputs": [
        {
          "internalType": "bool",
          "name": "",
          "type": "bool"
        }
      ],
      "stateMutability": "view",
      "type": "function",
      "constant": true
    },
    {
      "inputs": [],
      "name": "name",
      "outputs": [
        {
          "internalType": "string",
          "name": "",
          "type": "string"
        }
      ],
      "stateMutability": "view",
      "type": "function",
      "constant": true
    },
    {
      "inputs": [
        {
          "internalType": "uint256",
          "name": "tokenId",
          "type": "uint256"
        }
      ],
      "name": "ownerOf",
      "outputs": [
        {
          "internalType": "address",
          "name": "",
          "type": "address"
        }
      ],
      "stateMutability": "view",
      "type": "function",
      "constant": true
    },
    {
      "inputs": [
        {
          "internalType": "address",
          "name": "from",
          "type": "address"
        },
        {
          "internalType": "address",
          "name": "to",
          "type": "address"
        },
        {
          "internalType": "uint256",
          "name": "tokenId",
          "type": "uint256"
        }
      ],
      "name": "safeTransferFrom",
      "outputs": [],
      "stateMutability": "nonpayable",
      "type": "function"
    },
    {
      "inputs": [
        {
          "internalType": "address",
          "name": "from",
          "type": "address"
        },
        {
          "internalType": "address",
          "name": "to",
          "type": "address"
        },
        {
          "internalType": "uint256",
          "name": "tokenId",
          "type": "uint256"
        },
        {
          "internalType": "bytes",
          "name": "_data",
          "type": "bytes"
        }
      ],
      "name": "safeTransferFrom",
      "outputs": [],
      "stateMutability": "nonpayable",
      "type": "function"
    },
    {
      "inputs": [
        {
          "internalType": "address",
          "name": "operator",
          "type": "address"
        },
        {
          "internalType": "bool",
          "name": "approved",
          "type": "bool"
        }
      ],
      "name": "setApprovalForAll",
      "outputs": [],
      "stateMutability": "nonpayable",
      "type": "function"
    },
    {
      "inputs": [],
      "name": "symbol",
      "outputs": [
        {
          "internalType": "string",
          "name": "",
          "type": "string"
        }
      ],
      "stateMutability": "view",
      "type": "function",
      "constant": true
    },
    {
      "inputs": [
        {
          "internalType": "uint256",
          "name": "index",
          "type": "uint256"
        }
      ],
      "name": "tokenByIndex",
      "outputs": [
        {
          "internalType": "uint256",
          "name": "",
          "type": "uint256"
        }
      ],
      "stateMutability": "view",
      "type": "function",
      "constant": true
    },
    {
      "inputs": [
        {
          "internalType": "address",
          "name": "owner",
          "type": "address"
        },
        {
          "internalType": "uint256",
          "name": "index",
          "type": "uint256"
        }
      ],
      "name": "tokenOfOwnerByIndex",
      "outputs": [
        {
          "internalType": "uint256",
          "name": "",
          "type": "uint256"
        }
      ],
      "stateMutability": "view",
      "type": "function",
      "constant": true
    },
    {
      "inputs": [],
      "name": "totalSupply",
      "outputs": [
        {
          "internalType": "uint256",
          "name": "",
          "type": "uint256"
        }
      ],
      "stateMutability": "view",
      "type": "function",
      "constant": true
    },
    {
      "inputs": [
        {
          "internalType": "address",
          "name": "from",
          "type": "address"
        },
        {
          "internalType": "address",
          "name": "to",
          "type": "address"
        },
        {
          "internalType": "uint256",
          "name": "tokenId",
          "type": "uint256"
        }
      ],
      "name": "transferFrom",
      "outputs": [],
      "stateMutability": "nonpayable",
      "type": "function"
    },
    {
      "inputs": [
        {
          "internalType": "address",
          "name": "player",
          "type": "address"
        },
        {
          "internalType": "string",
          "name": "tokenURI",
          "type": "string"
        }
      ],
      "name": "awardItem",
      "outputs": [
        {
          "internalType": "uint256",
          "name": "",
          "type": "uint256"
        }
      ],
      "stateMutability": "nonpayable",
      "type": "function"
    },
    {
      "inputs": [
        {
          "internalType": "address",
          "name": "operator",
          "type": "address"
        },
        {
          "internalType": "address",
          "name": "from",
          "type": "address"
        },
        {
          "internalType": "uint256",
          "name": "tokenId",
          "type": "uint256"
        },
        {
          "internalType": "bytes",
          "name": "data",
          "type": "bytes"
        }
      ],
      "name": "onERC721Received",
      "outputs": [
        {
          "internalType": "bytes4",
          "name": "",
          "type": "bytes4"
        }
      ],
      "stateMutability": "pure",
      "type": "function",
      "constant": true
    },
    {
      "inputs": [
        {
          "internalType": "bytes4",
          "name": "interfaceId",
          "type": "bytes4"
        }
      ],
      "name": "supportsInterface",
      "outputs": [
        {
          "internalType": "bool",
          "name": "",
          "type": "bool"
        }
      ],
      "stateMutability": "view",
      "type": "function",
      "constant": true
    },
    {
      "inputs": [
        {
          "internalType": "uint256",
          "name": "tokenId",
          "type": "uint256"
        }
      ],
      "name": "tokenURI",
      "outputs": [
        {
          "internalType": "string",
          "name": "",
          "type": "string"
        }
      ],
      "stateMutability": "view",
      "type": "function",
      "constant": true
    },
    {
      "inputs": [
        {
          "internalType": "uint256",
          "name": "_tokenId",
          "type": "uint256"
        },
        {
          "internalType": "uint8",
          "name": "_maturity",
          "type": "uint8"
        },
        {
          "internalType": "uint256",
          "name": "_price",
          "type": "uint256"
        },
        {
          "internalType": "uint256",
          "name": "_earnest",
          "type": "uint256"
        },
        {
          "internalType": "uint16",
          "name": "_expiration",
          "type": "uint16"
        }
      ],
      "name": "initiateAuction",
      "outputs": [],
      "stateMutability": "nonpayable",
      "type": "function"
    }
  ],
  "bytecode": "0x60806040523480156200001157600080fd5b506040518060400160405280600881526020017f47616d654974656d0000000000000000000000000000000000000000000000008152506040518060400160405280600381526020017f49544d0000000000000000000000000000000000000000000000000000000000815250816000908051906020019062000096929190620000b8565b508060019080519060200190620000af929190620000b8565b505050620001cd565b828054620000c69062000168565b90600052602060002090601f016020900481019282620000ea576000855562000136565b82601f106200010557805160ff191683800117855562000136565b8280016001018555821562000136579182015b828111156200013557825182559160200191906001019062000118565b5b50905062000145919062000149565b5090565b5b80821115620001645760008160009055506001016200014a565b5090565b600060028204905060018216806200018157607f821691505b602082108114156200019857620001976200019e565b5b50919050565b7f4e487b7100000000000000000000000000000000000000000000000000000000600052602260045260246000fd5b61369680620001dd6000396000f3fe608060405234801561001057600080fd5b50600436106101215760003560e01c80634f6ccce7116100ad578063b88d4fde11610071578063b88d4fde14610340578063c29a639f1461035c578063c87b56dd14610378578063cf378343146103a8578063e985e9c5146103d857610121565b80634f6ccce7146102765780636352211e146102a657806370a08231146102d657806395d89b4114610306578063a22cb4651461032457610121565b8063150b7a02116100f4578063150b7a02146101c057806318160ddd146101f057806323b872dd1461020e5780632f745c591461022a57806342842e0e1461025a57610121565b806301ffc9a71461012657806306fdde0314610156578063081812fc14610174578063095ea7b3146101a4575b600080fd5b610140600480360381019061013b9190612535565b610408565b60405161014d9190612a07565b60405180910390f35b61015e61041a565b60405161016b9190612a3d565b60405180910390f35b61018e60048036038101906101899190612587565b6104ac565b60405161019b91906129a0565b60405180910390f35b6101be60048036038101906101b991906124f9565b610531565b005b6101da60048036038101906101d5919061236e565b610649565b6040516101e79190612a22565b60405180910390f35b6101f861065e565b6040516102059190612c9f565b60405180910390f35b6102286004803603810190610223919061231f565b61066b565b005b610244600480360381019061023f91906124f9565b6106cb565b6040516102519190612c9f565b60405180910390f35b610274600480360381019061026f919061231f565b610770565b005b610290600480360381019061028b9190612587565b610790565b60405161029d9190612c9f565b60405180910390f35b6102c060048036038101906102bb9190612587565b610827565b6040516102cd91906129a0565b60405180910390f35b6102f060048036038101906102eb91906122ba565b6108d9565b6040516102fd9190612c9f565b60405180910390f35b61030e610991565b60405161031b9190612a3d565b60405180910390f35b61033e60048036038101906103399190612469565b610a23565b005b61035a600480360381019061035591906123ee565b610a39565b005b610376600480360381019061037191906125b0565b610a9b565b005b610392600480360381019061038d9190612587565b610afd565b60405161039f9190612a3d565b60405180910390f35b6103c260048036038101906103bd91906124a5565b610b0f565b6040516103cf9190612c9f565b60405180910390f35b6103f260048036038101906103ed91906122e3565b610b46565b6040516103ff9190612a07565b60405180910390f35b600061041382610bda565b9050919050565b60606000805461042990612f10565b80601f016020809104026020016040519081016040528092919081815260200182805461045590612f10565b80156104a25780601f10610477576101008083540402835291602001916104a2565b820191906000526020600020905b81548152906001019060200180831161048557829003601f168201915b5050505050905090565b60006104b782610c54565b6104f6576040517f08c379a00000000000000000000000000000000000000000000000000000000081526004016104ed90612bff565b60405180910390fd5b6004600083815260200190815260200160002060009054906101000a900473ffffffffffffffffffffffffffffffffffffffff169050919050565b600061053c82610827565b90508073ffffffffffffffffffffffffffffffffffffffff168373ffffffffffffffffffffffffffffffffffffffff1614156105ad576040517f08c379a00000000000000000000000000000000000000000000000000000000081526004016105a490612c3f565b60405180910390fd5b8073ffffffffffffffffffffffffffffffffffffffff166105cc610cc0565b73ffffffffffffffffffffffffffffffffffffffff1614806105fb57506105fa816105f5610cc0565b610b46565b5b61063a576040517f08c379a000000000000000000000000000000000000000000000000000000000815260040161063190612b3f565b60405180910390fd5b6106448383610cc8565b505050565b600063150b7a0260e01b905095945050505050565b6000600980549050905090565b61067c610676610cc0565b82610d81565b6106bb576040517f08c379a00000000000000000000000000000000000000000000000000000000081526004016106b290612c5f565b60405180910390fd5b6106c6838383610e5f565b505050565b60006106d6836108d9565b8210610717576040517f08c379a000000000000000000000000000000000000000000000000000000000815260040161070e90612a5f565b60405180910390fd5b600760008473ffffffffffffffffffffffffffffffffffffffff1673ffffffffffffffffffffffffffffffffffffffff168152602001908152602001600020600083815260200190815260200160002054905092915050565b61078b83838360405180602001604052806000815250610a39565b505050565b600061079a61065e565b82106107db576040517f08c379a00000000000000000000000000000000000000000000000000000000081526004016107d290612c7f565b60405180910390fd5b60098281548110610815577f4e487b7100000000000000000000000000000000000000000000000000000000600052603260045260246000fd5b90600052602060002001549050919050565b6000806002600084815260200190815260200160002060009054906101000a900473ffffffffffffffffffffffffffffffffffffffff169050600073ffffffffffffffffffffffffffffffffffffffff168173ffffffffffffffffffffffffffffffffffffffff1614156108d0576040517f08c379a00000000000000000000000000000000000000000000000000000000081526004016108c790612b7f565b60405180910390fd5b80915050919050565b60008073ffffffffffffffffffffffffffffffffffffffff168273ffffffffffffffffffffffffffffffffffffffff16141561094a576040517f08c379a000000000000000000000000000000000000000000000000000000000815260040161094190612b5f565b60405180910390fd5b600360008373ffffffffffffffffffffffffffffffffffffffff1673ffffffffffffffffffffffffffffffffffffffff168152602001908152602001600020549050919050565b6060600180546109a090612f10565b80601f01602080910402602001604051908101604052809291908181526020018280546109cc90612f10565b8015610a195780601f106109ee57610100808354040283529160200191610a19565b820191906000526020600020905b8154815290600101906020018083116109fc57829003601f168201915b5050505050905090565b610a35610a2e610cc0565b83836110c6565b5050565b610a4a610a44610cc0565b83610d81565b610a89576040517f08c379a0000000000000000000000000000000000000000000000000000000008152600401610a8090612c5f565b60405180910390fd5b610a9584848484611233565b50505050565b610aac610aa6610cc0565b86610d81565b610aeb576040517f08c379a0000000000000000000000000000000000000000000000000000000008152600401610ae290612c5f565b60405180910390fd5b610af6333087610770565b5050505050565b6060610b088261128f565b9050919050565b600080610b1c600b6113e1565b9050610b2884826113ef565b610b3281846115c9565b610b3c600b61163d565b8091505092915050565b6000600560008473ffffffffffffffffffffffffffffffffffffffff1673ffffffffffffffffffffffffffffffffffffffff16815260200190815260200160002060008373ffffffffffffffffffffffffffffffffffffffff1673ffffffffffffffffffffffffffffffffffffffff16815260200190815260200160002060009054906101000a900460ff16905092915050565b60007f780e9d63000000000000000000000000000000000000000000000000000000007bffffffffffffffffffffffffffffffffffffffffffffffffffffffff1916827bffffffffffffffffffffffffffffffffffffffffffffffffffffffff19161480610c4d5750610c4c82611653565b5b9050919050565b60008073ffffffffffffffffffffffffffffffffffffffff166002600084815260200190815260200160002060009054906101000a900473ffffffffffffffffffffffffffffffffffffffff1673ffffffffffffffffffffffffffffffffffffffff1614159050919050565b600033905090565b816004600083815260200190815260200160002060006101000a81548173ffffffffffffffffffffffffffffffffffffffff021916908373ffffffffffffffffffffffffffffffffffffffff160217905550808273ffffffffffffffffffffffffffffffffffffffff16610d3b83610827565b73ffffffffffffffffffffffffffffffffffffffff167f8c5be1e5ebec7d5bd14f71427d1e84f3dd0314c0f7b2291e5b200ac8c7c3b92560405160405180910390a45050565b6000610d8c82610c54565b610dcb576040517f08c379a0000000000000000000000000000000000000000000000000000000008152600401610dc290612b1f565b60405180910390fd5b6000610dd683610827565b90508073ffffffffffffffffffffffffffffffffffffffff168473ffffffffffffffffffffffffffffffffffffffff161480610e185750610e178185610b46565b5b80610e5657508373ffffffffffffffffffffffffffffffffffffffff16610e3e846104ac565b73ffffffffffffffffffffffffffffffffffffffff16145b91505092915050565b8273ffffffffffffffffffffffffffffffffffffffff16610e7f82610827565b73ffffffffffffffffffffffffffffffffffffffff1614610ed5576040517f08c379a0000000000000000000000000000000000000000000000000000000008152600401610ecc90612a9f565b60405180910390fd5b600073ffffffffffffffffffffffffffffffffffffffff168273ffffffffffffffffffffffffffffffffffffffff161415610f45576040517f08c379a0000000000000000000000000000000000000000000000000000000008152600401610f3c90612adf565b60405180910390fd5b610f50838383611735565b610f5b600082610cc8565b6001600360008573ffffffffffffffffffffffffffffffffffffffff1673ffffffffffffffffffffffffffffffffffffffff1681526020019081526020016000206000828254610fab9190612e0b565b925050819055506001600360008473ffffffffffffffffffffffffffffffffffffffff1673ffffffffffffffffffffffffffffffffffffffff16815260200190815260200160002060008282546110029190612d84565b92505081905550816002600083815260200190815260200160002060006101000a81548173ffffffffffffffffffffffffffffffffffffffff021916908373ffffffffffffffffffffffffffffffffffffffff160217905550808273ffffffffffffffffffffffffffffffffffffffff168473ffffffffffffffffffffffffffffffffffffffff167fddf252ad1be2c89b69c2b068fc378daa952ba7f163c4a11628f55a4df523b3ef60405160405180910390a46110c1838383611745565b505050565b8173ffffffffffffffffffffffffffffffffffffffff168373ffffffffffffffffffffffffffffffffffffffff161415611135576040517f08c379a000000000000000000000000000000000000000000000000000000000815260040161112c90612aff565b60405180910390fd5b80600560008573ffffffffffffffffffffffffffffffffffffffff1673ffffffffffffffffffffffffffffffffffffffff16815260200190815260200160002060008473ffffffffffffffffffffffffffffffffffffffff1673ffffffffffffffffffffffffffffffffffffffff16815260200190815260200160002060006101000a81548160ff0219169083151502179055508173ffffffffffffffffffffffffffffffffffffffff168373ffffffffffffffffffffffffffffffffffffffff167f17307eab39ab6107e8899845ad3d59bd9653f200f220920489ca2b5937696c31836040516112269190612a07565b60405180910390a3505050565b61123e848484610e5f565b61124a8484848461174a565b611289576040517f08c379a000000000000000000000000000000000000000000000000000000000815260040161128090612a7f565b60405180910390fd5b50505050565b606061129a82610c54565b6112d9576040517f08c379a00000000000000000000000000000000000000000000000000000000081526004016112d090612bdf565b60405180910390fd5b60006006600084815260200190815260200160002080546112f990612f10565b80601f016020809104026020016040519081016040528092919081815260200182805461132590612f10565b80156113725780601f1061134757610100808354040283529160200191611372565b820191906000526020600020905b81548152906001019060200180831161135557829003601f168201915b5050505050905060006113836118e1565b90506000815114156113995781925050506113dc565b6000825111156113ce5780826040516020016113b692919061297c565b604051602081830303815290604052925050506113dc565b6113d7846118f8565b925050505b919050565b600081600001549050919050565b600073ffffffffffffffffffffffffffffffffffffffff168273ffffffffffffffffffffffffffffffffffffffff16141561145f576040517f08c379a000000000000000000000000000000000000000000000000000000000815260040161145690612bbf565b60405180910390fd5b61146881610c54565b156114a8576040517f08c379a000000000000000000000000000000000000000000000000000000000815260040161149f90612abf565b60405180910390fd5b6114b460008383611735565b6001600360008473ffffffffffffffffffffffffffffffffffffffff1673ffffffffffffffffffffffffffffffffffffffff16815260200190815260200160002060008282546115049190612d84565b92505081905550816002600083815260200190815260200160002060006101000a81548173ffffffffffffffffffffffffffffffffffffffff021916908373ffffffffffffffffffffffffffffffffffffffff160217905550808273ffffffffffffffffffffffffffffffffffffffff16600073ffffffffffffffffffffffffffffffffffffffff167fddf252ad1be2c89b69c2b068fc378daa952ba7f163c4a11628f55a4df523b3ef60405160405180910390a46115c560008383611745565b5050565b6115d282610c54565b611611576040517f08c379a000000000000000000000000000000000000000000000000000000000815260040161160890612b9f565b60405180910390fd5b8060066000848152602001908152602001600020908051906020019061163892919061206a565b505050565b6001816000016000828254019250508190555050565b60007f80ac58cd000000000000000000000000000000000000000000000000000000007bffffffffffffffffffffffffffffffffffffffffffffffffffffffff1916827bffffffffffffffffffffffffffffffffffffffffffffffffffffffff1916148061171e57507f5b5e139f000000000000000000000000000000000000000000000000000000007bffffffffffffffffffffffffffffffffffffffffffffffffffffffff1916827bffffffffffffffffffffffffffffffffffffffffffffffffffffffff1916145b8061172e575061172d8261199f565b5b9050919050565b611740838383611a09565b505050565b505050565b600061176b8473ffffffffffffffffffffffffffffffffffffffff16611b1d565b156118d4578373ffffffffffffffffffffffffffffffffffffffff1663150b7a02611794610cc0565b8786866040518563ffffffff1660e01b81526004016117b694939291906129bb565b602060405180830381600087803b1580156117d057600080fd5b505af192505050801561180157506040513d601f19601f820116820180604052508101906117fe919061255e565b60015b611884573d8060008114611831576040519150601f19603f3d011682016040523d82523d6000602084013e611836565b606091505b5060008151141561187c576040517f08c379a000000000000000000000000000000000000000000000000000000000815260040161187390612a7f565b60405180910390fd5b805181602001fd5b63150b7a0260e01b7bffffffffffffffffffffffffffffffffffffffffffffffffffffffff1916817bffffffffffffffffffffffffffffffffffffffffffffffffffffffff1916149150506118d9565b600190505b949350505050565b606060405180602001604052806000815250905090565b606061190382610c54565b611942576040517f08c379a000000000000000000000000000000000000000000000000000000000815260040161193990612c1f565b60405180910390fd5b600061194c6118e1565b9050600081511161196c5760405180602001604052806000815250611997565b8061197684611b40565b60405160200161198792919061297c565b6040516020818303038152906040525b915050919050565b60007f01ffc9a7000000000000000000000000000000000000000000000000000000007bffffffffffffffffffffffffffffffffffffffffffffffffffffffff1916827bffffffffffffffffffffffffffffffffffffffffffffffffffffffff1916149050919050565b611a14838383611ced565b600073ffffffffffffffffffffffffffffffffffffffff168373ffffffffffffffffffffffffffffffffffffffff161415611a5757611a5281611cf2565b611a96565b8173ffffffffffffffffffffffffffffffffffffffff168373ffffffffffffffffffffffffffffffffffffffff1614611a9557611a948382611d3b565b5b5b600073ffffffffffffffffffffffffffffffffffffffff168273ffffffffffffffffffffffffffffffffffffffff161415611ad957611ad481611ea8565b611b18565b8273ffffffffffffffffffffffffffffffffffffffff168273ffffffffffffffffffffffffffffffffffffffff1614611b1757611b168282611feb565b5b5b505050565b6000808273ffffffffffffffffffffffffffffffffffffffff163b119050919050565b60606000821415611b88576040518060400160405280600181526020017f30000000000000000000000000000000000000000000000000000000000000008152509050611ce8565b600082905060005b60008214611bba578080611ba390612f73565b915050600a82611bb39190612dda565b9150611b90565b60008167ffffffffffffffff811115611bfc577f4e487b7100000000000000000000000000000000000000000000000000000000600052604160045260246000fd5b6040519080825280601f01601f191660200182016040528015611c2e5781602001600182028036833780820191505090505b5090505b60008514611ce157600182611c479190612e0b565b9150600a85611c569190612fbc565b6030611c629190612d84565b60f81b818381518110611c9e577f4e487b7100000000000000000000000000000000000000000000000000000000600052603260045260246000fd5b60200101907effffffffffffffffffffffffffffffffffffffffffffffffffffffffffffff1916908160001a905350600a85611cda9190612dda565b9450611c32565b8093505050505b919050565b505050565b600980549050600a600083815260200190815260200160002081905550600981908060018154018082558091505060019003906000526020600020016000909190919091505550565b60006001611d48846108d9565b611d529190612e0b565b9050600060086000848152602001908152602001600020549050818114611e37576000600760008673ffffffffffffffffffffffffffffffffffffffff1673ffffffffffffffffffffffffffffffffffffffff168152602001908152602001600020600084815260200190815260200160002054905080600760008773ffffffffffffffffffffffffffffffffffffffff1673ffffffffffffffffffffffffffffffffffffffff168152602001908152602001600020600084815260200190815260200160002081905550816008600083815260200190815260200160002081905550505b6008600084815260200190815260200160002060009055600760008573ffffffffffffffffffffffffffffffffffffffff1673ffffffffffffffffffffffffffffffffffffffff16815260200190815260200160002060008381526020019081526020016000206000905550505050565b60006001600980549050611ebc9190612e0b565b90506000600a6000848152602001908152602001600020549050600060098381548110611f12577f4e487b7100000000000000000000000000000000000000000000000000000000600052603260045260246000fd5b906000526020600020015490508060098381548110611f5a577f4e487b7100000000000000000000000000000000000000000000000000000000600052603260045260246000fd5b906000526020600020018190555081600a600083815260200190815260200160002081905550600a6000858152602001908152602001600020600090556009805480611fcf577f4e487b7100000000000000000000000000000000000000000000000000000000600052603160045260246000fd5b6001900381819060005260206000200160009055905550505050565b6000611ff6836108d9565b905081600760008573ffffffffffffffffffffffffffffffffffffffff1673ffffffffffffffffffffffffffffffffffffffff168152602001908152602001600020600083815260200190815260200160002081905550806008600084815260200190815260200160002081905550505050565b82805461207690612f10565b90600052602060002090601f01602090048101928261209857600085556120df565b82601f106120b157805160ff19168380011785556120df565b828001600101855582156120df579182015b828111156120de5782518255916020019190600101906120c3565b5b5090506120ec91906120f0565b5090565b5b808211156121095760008160009055506001016120f1565b5090565b600061212061211b84612cdf565b612cba565b90508281526020810184848401111561213857600080fd5b612143848285612ece565b509392505050565b600061215e61215984612d10565b612cba565b90508281526020810184848401111561217657600080fd5b612181848285612ece565b509392505050565b600081359050612198816135d6565b92915050565b6000813590506121ad816135ed565b92915050565b6000813590506121c281613604565b92915050565b6000815190506121d781613604565b92915050565b60008083601f8401126121ef57600080fd5b8235905067ffffffffffffffff81111561220857600080fd5b60208301915083600182028301111561222057600080fd5b9250929050565b600082601f83011261223857600080fd5b813561224884826020860161210d565b91505092915050565b600082601f83011261226257600080fd5b813561227284826020860161214b565b91505092915050565b60008135905061228a8161361b565b92915050565b60008135905061229f81613632565b92915050565b6000813590506122b481613649565b92915050565b6000602082840312156122cc57600080fd5b60006122da84828501612189565b91505092915050565b600080604083850312156122f657600080fd5b600061230485828601612189565b925050602061231585828601612189565b9150509250929050565b60008060006060848603121561233457600080fd5b600061234286828701612189565b935050602061235386828701612189565b925050604061236486828701612290565b9150509250925092565b60008060008060006080868803121561238657600080fd5b600061239488828901612189565b95505060206123a588828901612189565b94505060406123b688828901612290565b935050606086013567ffffffffffffffff8111156123d357600080fd5b6123df888289016121dd565b92509250509295509295909350565b6000806000806080858703121561240457600080fd5b600061241287828801612189565b945050602061242387828801612189565b935050604061243487828801612290565b925050606085013567ffffffffffffffff81111561245157600080fd5b61245d87828801612227565b91505092959194509250565b6000806040838503121561247c57600080fd5b600061248a85828601612189565b925050602061249b8582860161219e565b9150509250929050565b600080604083850312156124b857600080fd5b60006124c685828601612189565b925050602083013567ffffffffffffffff8111156124e357600080fd5b6124ef85828601612251565b9150509250929050565b6000806040838503121561250c57600080fd5b600061251a85828601612189565b925050602061252b85828601612290565b9150509250929050565b60006020828403121561254757600080fd5b6000612555848285016121b3565b91505092915050565b60006020828403121561257057600080fd5b600061257e848285016121c8565b91505092915050565b60006020828403121561259957600080fd5b60006125a784828501612290565b91505092915050565b600080600080600060a086880312156125c857600080fd5b60006125d688828901612290565b95505060206125e7888289016122a5565b94505060406125f888828901612290565b935050606061260988828901612290565b925050608061261a8882890161227b565b9150509295509295909350565b61263081612e3f565b82525050565b61263f81612e51565b82525050565b61264e81612e5d565b82525050565b600061265f82612d41565b6126698185612d57565b9350612679818560208601612edd565b612682816130a9565b840191505092915050565b600061269882612d4c565b6126a28185612d68565b93506126b2818560208601612edd565b6126bb816130a9565b840191505092915050565b60006126d182612d4c565b6126db8185612d79565b93506126eb818560208601612edd565b80840191505092915050565b6000612704602b83612d68565b915061270f826130ba565b604082019050919050565b6000612727603283612d68565b915061273282613109565b604082019050919050565b600061274a602583612d68565b915061275582613158565b604082019050919050565b600061276d601c83612d68565b9150612778826131a7565b602082019050919050565b6000612790602483612d68565b915061279b826131d0565b604082019050919050565b60006127b3601983612d68565b91506127be8261321f565b602082019050919050565b60006127d6602c83612d68565b91506127e182613248565b604082019050919050565b60006127f9603883612d68565b915061280482613297565b604082019050919050565b600061281c602a83612d68565b9150612827826132e6565b604082019050919050565b600061283f602983612d68565b915061284a82613335565b604082019050919050565b6000612862602e83612d68565b915061286d82613384565b604082019050919050565b6000612885602083612d68565b9150612890826133d3565b602082019050919050565b60006128a8603183612d68565b91506128b3826133fc565b604082019050919050565b60006128cb602c83612d68565b91506128d68261344b565b604082019050919050565b60006128ee602f83612d68565b91506128f98261349a565b604082019050919050565b6000612911602183612d68565b915061291c826134e9565b604082019050919050565b6000612934603183612d68565b915061293f82613538565b604082019050919050565b6000612957602c83612d68565b915061296282613587565b604082019050919050565b61297681612eb7565b82525050565b600061298882856126c6565b915061299482846126c6565b91508190509392505050565b60006020820190506129b56000830184612627565b92915050565b60006080820190506129d06000830187612627565b6129dd6020830186612627565b6129ea604083018561296d565b81810360608301526129fc8184612654565b905095945050505050565b6000602082019050612a1c6000830184612636565b92915050565b6000602082019050612a376000830184612645565b92915050565b60006020820190508181036000830152612a57818461268d565b905092915050565b60006020820190508181036000830152612a78816126f7565b9050919050565b60006020820190508181036000830152612a988161271a565b9050919050565b60006020820190508181036000830152612ab88161273d565b9050919050565b60006020820190508181036000830152612ad881612760565b9050919050565b60006020820190508181036000830152612af881612783565b9050919050565b60006020820190508181036000830152612b18816127a6565b9050919050565b60006020820190508181036000830152612b38816127c9565b9050919050565b60006020820190508181036000830152612b58816127ec565b9050919050565b60006020820190508181036000830152612b788161280f565b9050919050565b60006020820190508181036000830152612b9881612832565b9050919050565b60006020820190508181036000830152612bb881612855565b9050919050565b60006020820190508181036000830152612bd881612878565b9050919050565b60006020820190508181036000830152612bf88161289b565b9050919050565b60006020820190508181036000830152612c18816128be565b9050919050565b60006020820190508181036000830152612c38816128e1565b9050919050565b60006020820190508181036000830152612c5881612904565b9050919050565b60006020820190508181036000830152612c7881612927565b9050919050565b60006020820190508181036000830152612c988161294a565b9050919050565b6000602082019050612cb4600083018461296d565b92915050565b6000612cc4612cd5565b9050612cd08282612f42565b919050565b6000604051905090565b600067ffffffffffffffff821115612cfa57612cf961307a565b5b612d03826130a9565b9050602081019050919050565b600067ffffffffffffffff821115612d2b57612d2a61307a565b5b612d34826130a9565b9050602081019050919050565b600081519050919050565b600081519050919050565b600082825260208201905092915050565b600082825260208201905092915050565b600081905092915050565b6000612d8f82612eb7565b9150612d9a83612eb7565b9250827fffffffffffffffffffffffffffffffffffffffffffffffffffffffffffffffff03821115612dcf57612dce612fed565b5b828201905092915050565b6000612de582612eb7565b9150612df083612eb7565b925082612e0057612dff61301c565b5b828204905092915050565b6000612e1682612eb7565b9150612e2183612eb7565b925082821015612e3457612e33612fed565b5b828203905092915050565b6000612e4a82612e97565b9050919050565b60008115159050919050565b60007fffffffff0000000000000000000000000000000000000000000000000000000082169050919050565b600061ffff82169050919050565b600073ffffffffffffffffffffffffffffffffffffffff82169050919050565b6000819050919050565b600060ff82169050919050565b82818337600083830152505050565b60005b83811015612efb578082015181840152602081019050612ee0565b83811115612f0a576000848401525b50505050565b60006002820490506001821680612f2857607f821691505b60208210811415612f3c57612f3b61304b565b5b50919050565b612f4b826130a9565b810181811067ffffffffffffffff82111715612f6a57612f6961307a565b5b80604052505050565b6000612f7e82612eb7565b91507fffffffffffffffffffffffffffffffffffffffffffffffffffffffffffffffff821415612fb157612fb0612fed565b5b600182019050919050565b6000612fc782612eb7565b9150612fd283612eb7565b925082612fe257612fe161301c565b5b828206905092915050565b7f4e487b7100000000000000000000000000000000000000000000000000000000600052601160045260246000fd5b7f4e487b7100000000000000000000000000000000000000000000000000000000600052601260045260246000fd5b7f4e487b7100000000000000000000000000000000000000000000000000000000600052602260045260246000fd5b7f4e487b7100000000000000000000000000000000000000000000000000000000600052604160045260246000fd5b6000601f19601f8301169050919050565b7f455243373231456e756d657261626c653a206f776e657220696e646578206f7560008201527f74206f6620626f756e6473000000000000000000000000000000000000000000602082015250565b7f4552433732313a207472616e7366657220746f206e6f6e20455243373231526560008201527f63656976657220696d706c656d656e7465720000000000000000000000000000602082015250565b7f4552433732313a207472616e736665722066726f6d20696e636f72726563742060008201527f6f776e6572000000000000000000000000000000000000000000000000000000602082015250565b7f4552433732313a20746f6b656e20616c7265616479206d696e74656400000000600082015250565b7f4552433732313a207472616e7366657220746f20746865207a65726f2061646460008201527f7265737300000000000000000000000000000000000000000000000000000000602082015250565b7f4552433732313a20617070726f766520746f2063616c6c657200000000000000600082015250565b7f4552433732313a206f70657261746f7220717565727920666f72206e6f6e657860008201527f697374656e7420746f6b656e0000000000000000000000000000000000000000602082015250565b7f4552433732313a20617070726f76652063616c6c6572206973206e6f74206f7760008201527f6e6572206e6f7220617070726f76656420666f7220616c6c0000000000000000602082015250565b7f4552433732313a2062616c616e636520717565727920666f7220746865207a6560008201527f726f206164647265737300000000000000000000000000000000000000000000602082015250565b7f4552433732313a206f776e657220717565727920666f72206e6f6e657869737460008201527f656e7420746f6b656e0000000000000000000000000000000000000000000000602082015250565b7f45524337323155524953746f726167653a2055524920736574206f66206e6f6e60008201527f6578697374656e7420746f6b656e000000000000000000000000000000000000602082015250565b7f4552433732313a206d696e7420746f20746865207a65726f2061646472657373600082015250565b7f45524337323155524953746f726167653a2055524920717565727920666f722060008201527f6e6f6e6578697374656e7420746f6b656e000000000000000000000000000000602082015250565b7f4552433732313a20617070726f76656420717565727920666f72206e6f6e657860008201527f697374656e7420746f6b656e0000000000000000000000000000000000000000602082015250565b7f4552433732314d657461646174613a2055524920717565727920666f72206e6f60008201527f6e6578697374656e7420746f6b656e0000000000000000000000000000000000602082015250565b7f4552433732313a20617070726f76616c20746f2063757272656e74206f776e6560008201527f7200000000000000000000000000000000000000000000000000000000000000602082015250565b7f4552433732313a207472616e736665722063616c6c6572206973206e6f74206f60008201527f776e6572206e6f7220617070726f766564000000000000000000000000000000602082015250565b7f455243373231456e756d657261626c653a20676c6f62616c20696e646578206f60008201527f7574206f6620626f756e64730000000000000000000000000000000000000000602082015250565b6135df81612e3f565b81146135ea57600080fd5b50565b6135f681612e51565b811461360157600080fd5b50565b61360d81612e5d565b811461361857600080fd5b50565b61362481612e89565b811461362f57600080fd5b50565b61363b81612eb7565b811461364657600080fd5b50565b61365281612ec1565b811461365d57600080fd5b5056fea26469706673582212203fd617ec8db68f673f2dcdc2adad30bc6593a76d31c8c99c87d2c98cff2de79264736f6c63430008010033",
  "immutableReferences": {},
  "source": "// https://eips.ethereum.org/EIPS/eip-721\n// https://docs.openzeppelin.com/contracts/4.x/erc721\n\n// SPDX-License-Identifier: MIT\npragma solidity ^0.8.0;\n\nimport \"@openzeppelin/contracts/token/ERC721/extensions/ERC721URIStorage.sol\";\nimport \"@openzeppelin/contracts/utils/Counters.sol\";\nimport \"@openzeppelin/contracts/token/ERC721/extensions/ERC721Enumerable.sol\";\n\n\ncontract Nft_init is ERC721URIStorage, ERC721Enumerable, IERC721Receiver {\n    using Counters for Counters.Counter;\n    Counters.Counter private _tokenIds;\n\n    constructor() ERC721(\"GameItem\", \"ITM\") {}\n\n    // struct Sale {\n    //     uint8 _maturity; \n    //     uint256 price;\n    //     uint256 earnest;\n    //     uint16 _expiration;\n    // }\n\n    // Sale[] public sales;\n\n    function awardItem(address player, string memory tokenURI)\n        public\n        returns (uint256)\n    {\n        uint256 newItemId = _tokenIds.current();\n        _mint(player, newItemId);\n        _setTokenURI(newItemId, tokenURI);\n\n        _tokenIds.increment();\n        return newItemId;\n    }\n    function onERC721Received(\n        address operator, \n        address from, \n        uint256 tokenId, \n        bytes calldata data) external pure override returns (bytes4) {        \n        return IERC721Receiver.onERC721Received.selector;\n    } \n    function _beforeTokenTransfer(\n        address from,\n        address to,\n        uint256 tokenId\n    ) internal override(ERC721, ERC721Enumerable) {\n        super._beforeTokenTransfer(from, to, tokenId);\n    }\n\n    function _burn(uint256 tokenId)\n        internal\n        override(ERC721, ERC721URIStorage)\n    {\n        super._burn(tokenId);\n    }\n\n    function supportsInterface(bytes4 interfaceId)\n        public\n        view\n        override(ERC721, ERC721Enumerable)\n        returns (bool)\n    {\n        return super.supportsInterface(interfaceId);\n    }\n\n    function tokenURI(uint256 tokenId)\n        public\n        view\n        override(ERC721, ERC721URIStorage)\n        returns (string memory)\n    {\n        return super.tokenURI(tokenId);\n    }\n\n    function initiateAuction(uint256 _tokenId, uint8 _maturity, uint256 _price, uint256 _earnest, uint16 _expiration) external {\n        require(\n            _isApprovedOrOwner(_msgSender(), _tokenId),\n            \"ERC721: transfer caller is not owner nor approved\"\n        );\n        //sales.push(Sale( _maturity,  _price,  _earnest,  _expiration));\n        safeTransferFrom(msg.sender, address(this), _tokenId);\n    }\n}\n",
  "sourcePath": "/Users/nicholaszehr/Blockchain/HackMoney/contracts/Nft_init.sol",
  "compiler": {
    "name": "solc",
    "version": "0.8.1+commit.df193b15.Emscripten.clang"
  },
  "schemaVersion": "3.4.7",
  "updatedAt": "2022-05-22T17:52:06.478Z",
  "networkType": "ethereum",
  "devdoc": {
    "kind": "dev",
    "methods": {
      "approve(address,uint256)": {
        "details": "See {IERC721-approve}."
      },
      "balanceOf(address)": {
        "details": "See {IERC721-balanceOf}."
      },
      "getApproved(uint256)": {
        "details": "See {IERC721-getApproved}."
      },
      "isApprovedForAll(address,address)": {
        "details": "See {IERC721-isApprovedForAll}."
      },
      "name()": {
        "details": "See {IERC721Metadata-name}."
      },
      "onERC721Received(address,address,uint256,bytes)": {
        "details": "Whenever an {IERC721} `tokenId` token is transferred to this contract via {IERC721-safeTransferFrom} by `operator` from `from`, this function is called. It must return its Solidity selector to confirm the token transfer. If any other value is returned or the interface is not implemented by the recipient, the transfer will be reverted. The selector can be obtained in Solidity with `IERC721Receiver.onERC721Received.selector`."
      },
      "ownerOf(uint256)": {
        "details": "See {IERC721-ownerOf}."
      },
      "safeTransferFrom(address,address,uint256)": {
        "details": "See {IERC721-safeTransferFrom}."
      },
      "safeTransferFrom(address,address,uint256,bytes)": {
        "details": "See {IERC721-safeTransferFrom}."
      },
      "setApprovalForAll(address,bool)": {
        "details": "See {IERC721-setApprovalForAll}."
      },
      "symbol()": {
        "details": "See {IERC721Metadata-symbol}."
      },
      "tokenByIndex(uint256)": {
        "details": "See {IERC721Enumerable-tokenByIndex}."
      },
      "tokenOfOwnerByIndex(address,uint256)": {
        "details": "See {IERC721Enumerable-tokenOfOwnerByIndex}."
      },
      "totalSupply()": {
        "details": "See {IERC721Enumerable-totalSupply}."
      },
      "transferFrom(address,address,uint256)": {
        "details": "See {IERC721-transferFrom}."
      }
    },
    "version": 1
  },
  "userdoc": {
    "kind": "user",
    "methods": {},
    "version": 1
  }
}