{
  "contractName": "Nft_init",
  "abi": [
    {
      "inputs": [],
      "stateMutability": "nonpayable",
      "type": "constructor"
    },
    {
      "anonymous": false,
      "inputs": [
        {
          "indexed": true,
          "internalType": "address",
          "name": "owner",
          "type": "address"
        },
        {
          "indexed": true,
          "internalType": "address",
          "name": "approved",
          "type": "address"
        },
        {
          "indexed": true,
          "internalType": "uint256",
          "name": "tokenId",
          "type": "uint256"
        }
      ],
      "name": "Approval",
      "type": "event"
    },
    {
      "anonymous": false,
      "inputs": [
        {
          "indexed": true,
          "internalType": "address",
          "name": "owner",
          "type": "address"
        },
        {
          "indexed": true,
          "internalType": "address",
          "name": "operator",
          "type": "address"
        },
        {
          "indexed": false,
          "internalType": "bool",
          "name": "approved",
          "type": "bool"
        }
      ],
      "name": "ApprovalForAll",
      "type": "event"
    },
    {
      "anonymous": false,
      "inputs": [
        {
          "indexed": true,
          "internalType": "address",
          "name": "from",
          "type": "address"
        },
        {
          "indexed": true,
          "internalType": "address",
          "name": "to",
          "type": "address"
        },
        {
          "indexed": true,
          "internalType": "uint256",
          "name": "tokenId",
          "type": "uint256"
        }
      ],
      "name": "Transfer",
      "type": "event"
    },
    {
      "inputs": [
        {
          "internalType": "address",
          "name": "to",
          "type": "address"
        },
        {
          "internalType": "uint256",
          "name": "tokenId",
          "type": "uint256"
        }
      ],
      "name": "approve",
      "outputs": [],
      "stateMutability": "nonpayable",
      "type": "function"
    },
    {
      "inputs": [
        {
          "internalType": "address",
          "name": "owner",
          "type": "address"
        }
      ],
      "name": "balanceOf",
      "outputs": [
        {
          "internalType": "uint256",
          "name": "",
          "type": "uint256"
        }
      ],
      "stateMutability": "view",
      "type": "function",
      "constant": true
    },
    {
      "inputs": [
        {
          "internalType": "uint256",
          "name": "tokenId",
          "type": "uint256"
        }
      ],
      "name": "getApproved",
      "outputs": [
        {
          "internalType": "address",
          "name": "",
          "type": "address"
        }
      ],
      "stateMutability": "view",
      "type": "function",
      "constant": true
    },
    {
      "inputs": [
        {
          "internalType": "address",
          "name": "owner",
          "type": "address"
        },
        {
          "internalType": "address",
          "name": "operator",
          "type": "address"
        }
      ],
      "name": "isApprovedForAll",
      "outputs": [
        {
          "internalType": "bool",
          "name": "",
          "type": "bool"
        }
      ],
      "stateMutability": "view",
      "type": "function",
      "constant": true
    },
    {
      "inputs": [],
      "name": "name",
      "outputs": [
        {
          "internalType": "string",
          "name": "",
          "type": "string"
        }
      ],
      "stateMutability": "view",
      "type": "function",
      "constant": true
    },
    {
      "inputs": [
        {
          "internalType": "uint256",
          "name": "tokenId",
          "type": "uint256"
        }
      ],
      "name": "ownerOf",
      "outputs": [
        {
          "internalType": "address",
          "name": "",
          "type": "address"
        }
      ],
      "stateMutability": "view",
      "type": "function",
      "constant": true
    },
    {
      "inputs": [
        {
          "internalType": "address",
          "name": "from",
          "type": "address"
        },
        {
          "internalType": "address",
          "name": "to",
          "type": "address"
        },
        {
          "internalType": "uint256",
          "name": "tokenId",
          "type": "uint256"
        }
      ],
      "name": "safeTransferFrom",
      "outputs": [],
      "stateMutability": "nonpayable",
      "type": "function"
    },
    {
      "inputs": [
        {
          "internalType": "address",
          "name": "from",
          "type": "address"
        },
        {
          "internalType": "address",
          "name": "to",
          "type": "address"
        },
        {
          "internalType": "uint256",
          "name": "tokenId",
          "type": "uint256"
        },
        {
          "internalType": "bytes",
          "name": "_data",
          "type": "bytes"
        }
      ],
      "name": "safeTransferFrom",
      "outputs": [],
      "stateMutability": "nonpayable",
      "type": "function"
    },
    {
      "inputs": [
        {
          "internalType": "uint256",
          "name": "",
          "type": "uint256"
        }
      ],
      "name": "sales",
      "outputs": [
        {
          "internalType": "uint8",
          "name": "_maturity",
          "type": "uint8"
        },
        {
          "internalType": "uint256",
          "name": "price",
          "type": "uint256"
        },
        {
          "internalType": "uint256",
          "name": "earnest",
          "type": "uint256"
        },
        {
          "internalType": "uint16",
          "name": "_expiration",
          "type": "uint16"
        }
      ],
      "stateMutability": "view",
      "type": "function",
      "constant": true
    },
    {
      "inputs": [
        {
          "internalType": "address",
          "name": "operator",
          "type": "address"
        },
        {
          "internalType": "bool",
          "name": "approved",
          "type": "bool"
        }
      ],
      "name": "setApprovalForAll",
      "outputs": [],
      "stateMutability": "nonpayable",
      "type": "function"
    },
    {
      "inputs": [],
      "name": "symbol",
      "outputs": [
        {
          "internalType": "string",
          "name": "",
          "type": "string"
        }
      ],
      "stateMutability": "view",
      "type": "function",
      "constant": true
    },
    {
      "inputs": [
        {
          "internalType": "uint256",
          "name": "index",
          "type": "uint256"
        }
      ],
      "name": "tokenByIndex",
      "outputs": [
        {
          "internalType": "uint256",
          "name": "",
          "type": "uint256"
        }
      ],
      "stateMutability": "view",
      "type": "function",
      "constant": true
    },
    {
      "inputs": [
        {
          "internalType": "address",
          "name": "owner",
          "type": "address"
        },
        {
          "internalType": "uint256",
          "name": "index",
          "type": "uint256"
        }
      ],
      "name": "tokenOfOwnerByIndex",
      "outputs": [
        {
          "internalType": "uint256",
          "name": "",
          "type": "uint256"
        }
      ],
      "stateMutability": "view",
      "type": "function",
      "constant": true
    },
    {
      "inputs": [],
      "name": "totalSupply",
      "outputs": [
        {
          "internalType": "uint256",
          "name": "",
          "type": "uint256"
        }
      ],
      "stateMutability": "view",
      "type": "function",
      "constant": true
    },
    {
      "inputs": [
        {
          "internalType": "address",
          "name": "from",
          "type": "address"
        },
        {
          "internalType": "address",
          "name": "to",
          "type": "address"
        },
        {
          "internalType": "uint256",
          "name": "tokenId",
          "type": "uint256"
        }
      ],
      "name": "transferFrom",
      "outputs": [],
      "stateMutability": "nonpayable",
      "type": "function"
    },
    {
      "inputs": [
        {
          "internalType": "address",
          "name": "player",
          "type": "address"
        },
        {
          "internalType": "string",
          "name": "tokenURI",
          "type": "string"
        }
      ],
      "name": "awardItem",
      "outputs": [
        {
          "internalType": "uint256",
          "name": "",
          "type": "uint256"
        }
      ],
      "stateMutability": "nonpayable",
      "type": "function"
    },
    {
      "inputs": [
        {
          "internalType": "address",
          "name": "operator",
          "type": "address"
        },
        {
          "internalType": "address",
          "name": "from",
          "type": "address"
        },
        {
          "internalType": "uint256",
          "name": "tokenId",
          "type": "uint256"
        },
        {
          "internalType": "bytes",
          "name": "data",
          "type": "bytes"
        }
      ],
      "name": "onERC721Received",
      "outputs": [
        {
          "internalType": "bytes4",
          "name": "",
          "type": "bytes4"
        }
      ],
      "stateMutability": "pure",
      "type": "function",
      "constant": true
    },
    {
      "inputs": [
        {
          "internalType": "bytes4",
          "name": "interfaceId",
          "type": "bytes4"
        }
      ],
      "name": "supportsInterface",
      "outputs": [
        {
          "internalType": "bool",
          "name": "",
          "type": "bool"
        }
      ],
      "stateMutability": "view",
      "type": "function",
      "constant": true
    },
    {
      "inputs": [
        {
          "internalType": "uint256",
          "name": "tokenId",
          "type": "uint256"
        }
      ],
      "name": "tokenURI",
      "outputs": [
        {
          "internalType": "string",
          "name": "",
          "type": "string"
        }
      ],
      "stateMutability": "view",
      "type": "function",
      "constant": true
    },
    {
      "inputs": [
        {
          "internalType": "uint256",
          "name": "_tokenId",
          "type": "uint256"
        },
        {
          "internalType": "uint8",
          "name": "_maturity",
          "type": "uint8"
        },
        {
          "internalType": "uint256",
          "name": "_price",
          "type": "uint256"
        },
        {
          "internalType": "uint256",
          "name": "_earnest",
          "type": "uint256"
        },
        {
          "internalType": "uint16",
          "name": "_expiration",
          "type": "uint16"
        }
      ],
      "name": "initiateAuction",
      "outputs": [],
      "stateMutability": "nonpayable",
      "type": "function"
    }
  ],
  "bytecode": "0x60806040523480156200001157600080fd5b506040518060400160405280600881526020017f47616d654974656d0000000000000000000000000000000000000000000000008152506040518060400160405280600381526020017f49544d0000000000000000000000000000000000000000000000000000000000815250816000908051906020019062000096929190620000b8565b508060019080519060200190620000af929190620000b8565b505050620001cd565b828054620000c69062000168565b90600052602060002090601f016020900481019282620000ea576000855562000136565b82601f106200010557805160ff191683800117855562000136565b8280016001018555821562000136579182015b828111156200013557825182559160200191906001019062000118565b5b50905062000145919062000149565b5090565b5b80821115620001645760008160009055506001016200014a565b5090565b600060028204905060018216806200018157607f821691505b602082108114156200019857620001976200019e565b5b50919050565b7f4e487b7100000000000000000000000000000000000000000000000000000000600052602260045260246000fd5b61383f80620001dd6000396000f3fe608060405234801561001057600080fd5b506004361061012c5760003560e01c80636352211e116100ad578063b88d4fde11610071578063b88d4fde1461037e578063c29a639f1461039a578063c87b56dd146103b6578063cf378343146103e6578063e985e9c5146104165761012c565b80636352211e146102b157806370a08231146102e157806395d89b4114610311578063a22cb4651461032f578063b5f522f71461034b5761012c565b806318160ddd116100f457806318160ddd146101fb57806323b872dd146102195780632f745c591461023557806342842e0e146102655780634f6ccce7146102815761012c565b806301ffc9a71461013157806306fdde0314610161578063081812fc1461017f578063095ea7b3146101af578063150b7a02146101cb575b600080fd5b61014b6004803603810190610146919061267b565b610446565b6040516101589190612b6b565b60405180910390f35b610169610458565b6040516101769190612ba1565b60405180910390f35b610199600480360381019061019491906126cd565b6104ea565b6040516101a69190612b04565b60405180910390f35b6101c960048036038101906101c4919061263f565b61056f565b005b6101e560048036038101906101e091906124b4565b610687565b6040516101f29190612b86565b60405180910390f35b61020361069c565b6040516102109190612e03565b60405180910390f35b610233600480360381019061022e9190612465565b6106a9565b005b61024f600480360381019061024a919061263f565b610709565b60405161025c9190612e03565b60405180910390f35b61027f600480360381019061027a9190612465565b6107ae565b005b61029b600480360381019061029691906126cd565b6107ce565b6040516102a89190612e03565b60405180910390f35b6102cb60048036038101906102c691906126cd565b610865565b6040516102d89190612b04565b60405180910390f35b6102fb60048036038101906102f69190612400565b610917565b6040516103089190612e03565b60405180910390f35b6103196109cf565b6040516103269190612ba1565b60405180910390f35b610349600480360381019061034491906125af565b610a61565b005b610365600480360381019061036091906126cd565b610a77565b6040516103759493929190612e1e565b60405180910390f35b61039860048036038101906103939190612534565b610ad2565b005b6103b460048036038101906103af91906126f6565b610b34565b005b6103d060048036038101906103cb91906126cd565b610c43565b6040516103dd9190612ba1565b60405180910390f35b61040060048036038101906103fb91906125eb565b610c55565b60405161040d9190612e03565b60405180910390f35b610430600480360381019061042b9190612429565b610c8c565b60405161043d9190612b6b565b60405180910390f35b600061045182610d20565b9050919050565b606060008054610467906130b9565b80601f0160208091040260200160405190810160405280929190818152602001828054610493906130b9565b80156104e05780601f106104b5576101008083540402835291602001916104e0565b820191906000526020600020905b8154815290600101906020018083116104c357829003601f168201915b5050505050905090565b60006104f582610d9a565b610534576040517f08c379a000000000000000000000000000000000000000000000000000000000815260040161052b90612d63565b60405180910390fd5b6004600083815260200190815260200160002060009054906101000a900473ffffffffffffffffffffffffffffffffffffffff169050919050565b600061057a82610865565b90508073ffffffffffffffffffffffffffffffffffffffff168373ffffffffffffffffffffffffffffffffffffffff1614156105eb576040517f08c379a00000000000000000000000000000000000000000000000000000000081526004016105e290612da3565b60405180910390fd5b8073ffffffffffffffffffffffffffffffffffffffff1661060a610e06565b73ffffffffffffffffffffffffffffffffffffffff161480610639575061063881610633610e06565b610c8c565b5b610678576040517f08c379a000000000000000000000000000000000000000000000000000000000815260040161066f90612ca3565b60405180910390fd5b6106828383610e0e565b505050565b600063150b7a0260e01b905095945050505050565b6000600980549050905090565b6106ba6106b4610e06565b82610ec7565b6106f9576040517f08c379a00000000000000000000000000000000000000000000000000000000081526004016106f090612dc3565b60405180910390fd5b610704838383610fa5565b505050565b600061071483610917565b8210610755576040517f08c379a000000000000000000000000000000000000000000000000000000000815260040161074c90612bc3565b60405180910390fd5b600760008473ffffffffffffffffffffffffffffffffffffffff1673ffffffffffffffffffffffffffffffffffffffff168152602001908152602001600020600083815260200190815260200160002054905092915050565b6107c983838360405180602001604052806000815250610ad2565b505050565b60006107d861069c565b8210610819576040517f08c379a000000000000000000000000000000000000000000000000000000000815260040161081090612de3565b60405180910390fd5b60098281548110610853577f4e487b7100000000000000000000000000000000000000000000000000000000600052603260045260246000fd5b90600052602060002001549050919050565b6000806002600084815260200190815260200160002060009054906101000a900473ffffffffffffffffffffffffffffffffffffffff169050600073ffffffffffffffffffffffffffffffffffffffff168173ffffffffffffffffffffffffffffffffffffffff16141561090e576040517f08c379a000000000000000000000000000000000000000000000000000000000815260040161090590612ce3565b60405180910390fd5b80915050919050565b60008073ffffffffffffffffffffffffffffffffffffffff168273ffffffffffffffffffffffffffffffffffffffff161415610988576040517f08c379a000000000000000000000000000000000000000000000000000000000815260040161097f90612cc3565b60405180910390fd5b600360008373ffffffffffffffffffffffffffffffffffffffff1673ffffffffffffffffffffffffffffffffffffffff168152602001908152602001600020549050919050565b6060600180546109de906130b9565b80601f0160208091040260200160405190810160405280929190818152602001828054610a0a906130b9565b8015610a575780601f10610a2c57610100808354040283529160200191610a57565b820191906000526020600020905b815481529060010190602001808311610a3a57829003601f168201915b5050505050905090565b610a73610a6c610e06565b838361120c565b5050565b600c8181548110610a8757600080fd5b90600052602060002090600402016000915090508060000160009054906101000a900460ff16908060010154908060020154908060030160009054906101000a900461ffff16905084565b610ae3610add610e06565b83610ec7565b610b22576040517f08c379a0000000000000000000000000000000000000000000000000000000008152600401610b1990612dc3565b60405180910390fd5b610b2e84848484611379565b50505050565b610b45610b3f610e06565b86610ec7565b610b84576040517f08c379a0000000000000000000000000000000000000000000000000000000008152600401610b7b90612dc3565b60405180910390fd5b600c60405180608001604052808660ff1681526020018581526020018481526020018361ffff16815250908060018154018082558091505060019003906000526020600020906004020160009091909190915060008201518160000160006101000a81548160ff021916908360ff160217905550602082015181600101556040820151816002015560608201518160030160006101000a81548161ffff021916908361ffff1602179055505050610c3c3330876107ae565b5050505050565b6060610c4e826113d5565b9050919050565b600080610c62600b611527565b9050610c6e8482611535565b610c78818461170f565b610c82600b611783565b8091505092915050565b6000600560008473ffffffffffffffffffffffffffffffffffffffff1673ffffffffffffffffffffffffffffffffffffffff16815260200190815260200160002060008373ffffffffffffffffffffffffffffffffffffffff1673ffffffffffffffffffffffffffffffffffffffff16815260200190815260200160002060009054906101000a900460ff16905092915050565b60007f780e9d63000000000000000000000000000000000000000000000000000000007bffffffffffffffffffffffffffffffffffffffffffffffffffffffff1916827bffffffffffffffffffffffffffffffffffffffffffffffffffffffff19161480610d935750610d9282611799565b5b9050919050565b60008073ffffffffffffffffffffffffffffffffffffffff166002600084815260200190815260200160002060009054906101000a900473ffffffffffffffffffffffffffffffffffffffff1673ffffffffffffffffffffffffffffffffffffffff1614159050919050565b600033905090565b816004600083815260200190815260200160002060006101000a81548173ffffffffffffffffffffffffffffffffffffffff021916908373ffffffffffffffffffffffffffffffffffffffff160217905550808273ffffffffffffffffffffffffffffffffffffffff16610e8183610865565b73ffffffffffffffffffffffffffffffffffffffff167f8c5be1e5ebec7d5bd14f71427d1e84f3dd0314c0f7b2291e5b200ac8c7c3b92560405160405180910390a45050565b6000610ed282610d9a565b610f11576040517f08c379a0000000000000000000000000000000000000000000000000000000008152600401610f0890612c83565b60405180910390fd5b6000610f1c83610865565b90508073ffffffffffffffffffffffffffffffffffffffff168473ffffffffffffffffffffffffffffffffffffffff161480610f5e5750610f5d8185610c8c565b5b80610f9c57508373ffffffffffffffffffffffffffffffffffffffff16610f84846104ea565b73ffffffffffffffffffffffffffffffffffffffff16145b91505092915050565b8273ffffffffffffffffffffffffffffffffffffffff16610fc582610865565b73ffffffffffffffffffffffffffffffffffffffff161461101b576040517f08c379a000000000000000000000000000000000000000000000000000000000815260040161101290612c03565b60405180910390fd5b600073ffffffffffffffffffffffffffffffffffffffff168273ffffffffffffffffffffffffffffffffffffffff16141561108b576040517f08c379a000000000000000000000000000000000000000000000000000000000815260040161108290612c43565b60405180910390fd5b61109683838361187b565b6110a1600082610e0e565b6001600360008573ffffffffffffffffffffffffffffffffffffffff1673ffffffffffffffffffffffffffffffffffffffff16815260200190815260200160002060008282546110f19190612fb4565b925050819055506001600360008473ffffffffffffffffffffffffffffffffffffffff1673ffffffffffffffffffffffffffffffffffffffff16815260200190815260200160002060008282546111489190612f2d565b92505081905550816002600083815260200190815260200160002060006101000a81548173ffffffffffffffffffffffffffffffffffffffff021916908373ffffffffffffffffffffffffffffffffffffffff160217905550808273ffffffffffffffffffffffffffffffffffffffff168473ffffffffffffffffffffffffffffffffffffffff167fddf252ad1be2c89b69c2b068fc378daa952ba7f163c4a11628f55a4df523b3ef60405160405180910390a461120783838361188b565b505050565b8173ffffffffffffffffffffffffffffffffffffffff168373ffffffffffffffffffffffffffffffffffffffff16141561127b576040517f08c379a000000000000000000000000000000000000000000000000000000000815260040161127290612c63565b60405180910390fd5b80600560008573ffffffffffffffffffffffffffffffffffffffff1673ffffffffffffffffffffffffffffffffffffffff16815260200190815260200160002060008473ffffffffffffffffffffffffffffffffffffffff1673ffffffffffffffffffffffffffffffffffffffff16815260200190815260200160002060006101000a81548160ff0219169083151502179055508173ffffffffffffffffffffffffffffffffffffffff168373ffffffffffffffffffffffffffffffffffffffff167f17307eab39ab6107e8899845ad3d59bd9653f200f220920489ca2b5937696c318360405161136c9190612b6b565b60405180910390a3505050565b611384848484610fa5565b61139084848484611890565b6113cf576040517f08c379a00000000000000000000000000000000000000000000000000000000081526004016113c690612be3565b60405180910390fd5b50505050565b60606113e082610d9a565b61141f576040517f08c379a000000000000000000000000000000000000000000000000000000000815260040161141690612d43565b60405180910390fd5b600060066000848152602001908152602001600020805461143f906130b9565b80601f016020809104026020016040519081016040528092919081815260200182805461146b906130b9565b80156114b85780601f1061148d576101008083540402835291602001916114b8565b820191906000526020600020905b81548152906001019060200180831161149b57829003601f168201915b5050505050905060006114c9611a27565b90506000815114156114df578192505050611522565b6000825111156115145780826040516020016114fc929190612ae0565b60405160208183030381529060405292505050611522565b61151d84611a3e565b925050505b919050565b600081600001549050919050565b600073ffffffffffffffffffffffffffffffffffffffff168273ffffffffffffffffffffffffffffffffffffffff1614156115a5576040517f08c379a000000000000000000000000000000000000000000000000000000000815260040161159c90612d23565b60405180910390fd5b6115ae81610d9a565b156115ee576040517f08c379a00000000000000000000000000000000000000000000000000000000081526004016115e590612c23565b60405180910390fd5b6115fa6000838361187b565b6001600360008473ffffffffffffffffffffffffffffffffffffffff1673ffffffffffffffffffffffffffffffffffffffff168152602001908152602001600020600082825461164a9190612f2d565b92505081905550816002600083815260200190815260200160002060006101000a81548173ffffffffffffffffffffffffffffffffffffffff021916908373ffffffffffffffffffffffffffffffffffffffff160217905550808273ffffffffffffffffffffffffffffffffffffffff16600073ffffffffffffffffffffffffffffffffffffffff167fddf252ad1be2c89b69c2b068fc378daa952ba7f163c4a11628f55a4df523b3ef60405160405180910390a461170b6000838361188b565b5050565b61171882610d9a565b611757576040517f08c379a000000000000000000000000000000000000000000000000000000000815260040161174e90612d03565b60405180910390fd5b8060066000848152602001908152602001600020908051906020019061177e9291906121b0565b505050565b6001816000016000828254019250508190555050565b60007f80ac58cd000000000000000000000000000000000000000000000000000000007bffffffffffffffffffffffffffffffffffffffffffffffffffffffff1916827bffffffffffffffffffffffffffffffffffffffffffffffffffffffff1916148061186457507f5b5e139f000000000000000000000000000000000000000000000000000000007bffffffffffffffffffffffffffffffffffffffffffffffffffffffff1916827bffffffffffffffffffffffffffffffffffffffffffffffffffffffff1916145b80611874575061187382611ae5565b5b9050919050565b611886838383611b4f565b505050565b505050565b60006118b18473ffffffffffffffffffffffffffffffffffffffff16611c63565b15611a1a578373ffffffffffffffffffffffffffffffffffffffff1663150b7a026118da610e06565b8786866040518563ffffffff1660e01b81526004016118fc9493929190612b1f565b602060405180830381600087803b15801561191657600080fd5b505af192505050801561194757506040513d601f19601f8201168201806040525081019061194491906126a4565b60015b6119ca573d8060008114611977576040519150601f19603f3d011682016040523d82523d6000602084013e61197c565b606091505b506000815114156119c2576040517f08c379a00000000000000000000000000000000000000000000000000000000081526004016119b990612be3565b60405180910390fd5b805181602001fd5b63150b7a0260e01b7bffffffffffffffffffffffffffffffffffffffffffffffffffffffff1916817bffffffffffffffffffffffffffffffffffffffffffffffffffffffff191614915050611a1f565b600190505b949350505050565b606060405180602001604052806000815250905090565b6060611a4982610d9a565b611a88576040517f08c379a0000000000000000000000000000000000000000000000000000000008152600401611a7f90612d83565b60405180910390fd5b6000611a92611a27565b90506000815111611ab25760405180602001604052806000815250611add565b80611abc84611c86565b604051602001611acd929190612ae0565b6040516020818303038152906040525b915050919050565b60007f01ffc9a7000000000000000000000000000000000000000000000000000000007bffffffffffffffffffffffffffffffffffffffffffffffffffffffff1916827bffffffffffffffffffffffffffffffffffffffffffffffffffffffff1916149050919050565b611b5a838383611e33565b600073ffffffffffffffffffffffffffffffffffffffff168373ffffffffffffffffffffffffffffffffffffffff161415611b9d57611b9881611e38565b611bdc565b8173ffffffffffffffffffffffffffffffffffffffff168373ffffffffffffffffffffffffffffffffffffffff1614611bdb57611bda8382611e81565b5b5b600073ffffffffffffffffffffffffffffffffffffffff168273ffffffffffffffffffffffffffffffffffffffff161415611c1f57611c1a81611fee565b611c5e565b8273ffffffffffffffffffffffffffffffffffffffff168273ffffffffffffffffffffffffffffffffffffffff1614611c5d57611c5c8282612131565b5b5b505050565b6000808273ffffffffffffffffffffffffffffffffffffffff163b119050919050565b60606000821415611cce576040518060400160405280600181526020017f30000000000000000000000000000000000000000000000000000000000000008152509050611e2e565b600082905060005b60008214611d00578080611ce99061311c565b915050600a82611cf99190612f83565b9150611cd6565b60008167ffffffffffffffff811115611d42577f4e487b7100000000000000000000000000000000000000000000000000000000600052604160045260246000fd5b6040519080825280601f01601f191660200182016040528015611d745781602001600182028036833780820191505090505b5090505b60008514611e2757600182611d8d9190612fb4565b9150600a85611d9c9190613165565b6030611da89190612f2d565b60f81b818381518110611de4577f4e487b7100000000000000000000000000000000000000000000000000000000600052603260045260246000fd5b60200101907effffffffffffffffffffffffffffffffffffffffffffffffffffffffffffff1916908160001a905350600a85611e209190612f83565b9450611d78565b8093505050505b919050565b505050565b600980549050600a600083815260200190815260200160002081905550600981908060018154018082558091505060019003906000526020600020016000909190919091505550565b60006001611e8e84610917565b611e989190612fb4565b9050600060086000848152602001908152602001600020549050818114611f7d576000600760008673ffffffffffffffffffffffffffffffffffffffff1673ffffffffffffffffffffffffffffffffffffffff168152602001908152602001600020600084815260200190815260200160002054905080600760008773ffffffffffffffffffffffffffffffffffffffff1673ffffffffffffffffffffffffffffffffffffffff168152602001908152602001600020600084815260200190815260200160002081905550816008600083815260200190815260200160002081905550505b6008600084815260200190815260200160002060009055600760008573ffffffffffffffffffffffffffffffffffffffff1673ffffffffffffffffffffffffffffffffffffffff16815260200190815260200160002060008381526020019081526020016000206000905550505050565b600060016009805490506120029190612fb4565b90506000600a6000848152602001908152602001600020549050600060098381548110612058577f4e487b7100000000000000000000000000000000000000000000000000000000600052603260045260246000fd5b9060005260206000200154905080600983815481106120a0577f4e487b7100000000000000000000000000000000000000000000000000000000600052603260045260246000fd5b906000526020600020018190555081600a600083815260200190815260200160002081905550600a6000858152602001908152602001600020600090556009805480612115577f4e487b7100000000000000000000000000000000000000000000000000000000600052603160045260246000fd5b6001900381819060005260206000200160009055905550505050565b600061213c83610917565b905081600760008573ffffffffffffffffffffffffffffffffffffffff1673ffffffffffffffffffffffffffffffffffffffff168152602001908152602001600020600083815260200190815260200160002081905550806008600084815260200190815260200160002081905550505050565b8280546121bc906130b9565b90600052602060002090601f0160209004810192826121de5760008555612225565b82601f106121f757805160ff1916838001178555612225565b82800160010185558215612225579182015b82811115612224578251825591602001919060010190612209565b5b5090506122329190612236565b5090565b5b8082111561224f576000816000905550600101612237565b5090565b600061226661226184612e88565b612e63565b90508281526020810184848401111561227e57600080fd5b612289848285613077565b509392505050565b60006122a461229f84612eb9565b612e63565b9050828152602081018484840111156122bc57600080fd5b6122c7848285613077565b509392505050565b6000813590506122de8161377f565b92915050565b6000813590506122f381613796565b92915050565b600081359050612308816137ad565b92915050565b60008151905061231d816137ad565b92915050565b60008083601f84011261233557600080fd5b8235905067ffffffffffffffff81111561234e57600080fd5b60208301915083600182028301111561236657600080fd5b9250929050565b600082601f83011261237e57600080fd5b813561238e848260208601612253565b91505092915050565b600082601f8301126123a857600080fd5b81356123b8848260208601612291565b91505092915050565b6000813590506123d0816137c4565b92915050565b6000813590506123e5816137db565b92915050565b6000813590506123fa816137f2565b92915050565b60006020828403121561241257600080fd5b6000612420848285016122cf565b91505092915050565b6000806040838503121561243c57600080fd5b600061244a858286016122cf565b925050602061245b858286016122cf565b9150509250929050565b60008060006060848603121561247a57600080fd5b6000612488868287016122cf565b9350506020612499868287016122cf565b92505060406124aa868287016123d6565b9150509250925092565b6000806000806000608086880312156124cc57600080fd5b60006124da888289016122cf565b95505060206124eb888289016122cf565b94505060406124fc888289016123d6565b935050606086013567ffffffffffffffff81111561251957600080fd5b61252588828901612323565b92509250509295509295909350565b6000806000806080858703121561254a57600080fd5b6000612558878288016122cf565b9450506020612569878288016122cf565b935050604061257a878288016123d6565b925050606085013567ffffffffffffffff81111561259757600080fd5b6125a38782880161236d565b91505092959194509250565b600080604083850312156125c257600080fd5b60006125d0858286016122cf565b92505060206125e1858286016122e4565b9150509250929050565b600080604083850312156125fe57600080fd5b600061260c858286016122cf565b925050602083013567ffffffffffffffff81111561262957600080fd5b61263585828601612397565b9150509250929050565b6000806040838503121561265257600080fd5b6000612660858286016122cf565b9250506020612671858286016123d6565b9150509250929050565b60006020828403121561268d57600080fd5b600061269b848285016122f9565b91505092915050565b6000602082840312156126b657600080fd5b60006126c48482850161230e565b91505092915050565b6000602082840312156126df57600080fd5b60006126ed848285016123d6565b91505092915050565b600080600080600060a0868803121561270e57600080fd5b600061271c888289016123d6565b955050602061272d888289016123eb565b945050604061273e888289016123d6565b935050606061274f888289016123d6565b9250506080612760888289016123c1565b9150509295509295909350565b61277681612fe8565b82525050565b61278581612ffa565b82525050565b61279481613006565b82525050565b60006127a582612eea565b6127af8185612f00565b93506127bf818560208601613086565b6127c881613252565b840191505092915050565b60006127de82612ef5565b6127e88185612f11565b93506127f8818560208601613086565b61280181613252565b840191505092915050565b600061281782612ef5565b6128218185612f22565b9350612831818560208601613086565b80840191505092915050565b600061284a602b83612f11565b915061285582613263565b604082019050919050565b600061286d603283612f11565b9150612878826132b2565b604082019050919050565b6000612890602583612f11565b915061289b82613301565b604082019050919050565b60006128b3601c83612f11565b91506128be82613350565b602082019050919050565b60006128d6602483612f11565b91506128e182613379565b604082019050919050565b60006128f9601983612f11565b9150612904826133c8565b602082019050919050565b600061291c602c83612f11565b9150612927826133f1565b604082019050919050565b600061293f603883612f11565b915061294a82613440565b604082019050919050565b6000612962602a83612f11565b915061296d8261348f565b604082019050919050565b6000612985602983612f11565b9150612990826134de565b604082019050919050565b60006129a8602e83612f11565b91506129b38261352d565b604082019050919050565b60006129cb602083612f11565b91506129d68261357c565b602082019050919050565b60006129ee603183612f11565b91506129f9826135a5565b604082019050919050565b6000612a11602c83612f11565b9150612a1c826135f4565b604082019050919050565b6000612a34602f83612f11565b9150612a3f82613643565b604082019050919050565b6000612a57602183612f11565b9150612a6282613692565b604082019050919050565b6000612a7a603183612f11565b9150612a85826136e1565b604082019050919050565b6000612a9d602c83612f11565b9150612aa882613730565b604082019050919050565b612abc81613032565b82525050565b612acb81613060565b82525050565b612ada8161306a565b82525050565b6000612aec828561280c565b9150612af8828461280c565b91508190509392505050565b6000602082019050612b19600083018461276d565b92915050565b6000608082019050612b34600083018761276d565b612b41602083018661276d565b612b4e6040830185612ac2565b8181036060830152612b60818461279a565b905095945050505050565b6000602082019050612b80600083018461277c565b92915050565b6000602082019050612b9b600083018461278b565b92915050565b60006020820190508181036000830152612bbb81846127d3565b905092915050565b60006020820190508181036000830152612bdc8161283d565b9050919050565b60006020820190508181036000830152612bfc81612860565b9050919050565b60006020820190508181036000830152612c1c81612883565b9050919050565b60006020820190508181036000830152612c3c816128a6565b9050919050565b60006020820190508181036000830152612c5c816128c9565b9050919050565b60006020820190508181036000830152612c7c816128ec565b9050919050565b60006020820190508181036000830152612c9c8161290f565b9050919050565b60006020820190508181036000830152612cbc81612932565b9050919050565b60006020820190508181036000830152612cdc81612955565b9050919050565b60006020820190508181036000830152612cfc81612978565b9050919050565b60006020820190508181036000830152612d1c8161299b565b9050919050565b60006020820190508181036000830152612d3c816129be565b9050919050565b60006020820190508181036000830152612d5c816129e1565b9050919050565b60006020820190508181036000830152612d7c81612a04565b9050919050565b60006020820190508181036000830152612d9c81612a27565b9050919050565b60006020820190508181036000830152612dbc81612a4a565b9050919050565b60006020820190508181036000830152612ddc81612a6d565b9050919050565b60006020820190508181036000830152612dfc81612a90565b9050919050565b6000602082019050612e186000830184612ac2565b92915050565b6000608082019050612e336000830187612ad1565b612e406020830186612ac2565b612e4d6040830185612ac2565b612e5a6060830184612ab3565b95945050505050565b6000612e6d612e7e565b9050612e7982826130eb565b919050565b6000604051905090565b600067ffffffffffffffff821115612ea357612ea2613223565b5b612eac82613252565b9050602081019050919050565b600067ffffffffffffffff821115612ed457612ed3613223565b5b612edd82613252565b9050602081019050919050565b600081519050919050565b600081519050919050565b600082825260208201905092915050565b600082825260208201905092915050565b600081905092915050565b6000612f3882613060565b9150612f4383613060565b9250827fffffffffffffffffffffffffffffffffffffffffffffffffffffffffffffffff03821115612f7857612f77613196565b5b828201905092915050565b6000612f8e82613060565b9150612f9983613060565b925082612fa957612fa86131c5565b5b828204905092915050565b6000612fbf82613060565b9150612fca83613060565b925082821015612fdd57612fdc613196565b5b828203905092915050565b6000612ff382613040565b9050919050565b60008115159050919050565b60007fffffffff0000000000000000000000000000000000000000000000000000000082169050919050565b600061ffff82169050919050565b600073ffffffffffffffffffffffffffffffffffffffff82169050919050565b6000819050919050565b600060ff82169050919050565b82818337600083830152505050565b60005b838110156130a4578082015181840152602081019050613089565b838111156130b3576000848401525b50505050565b600060028204905060018216806130d157607f821691505b602082108114156130e5576130e46131f4565b5b50919050565b6130f482613252565b810181811067ffffffffffffffff8211171561311357613112613223565b5b80604052505050565b600061312782613060565b91507fffffffffffffffffffffffffffffffffffffffffffffffffffffffffffffffff82141561315a57613159613196565b5b600182019050919050565b600061317082613060565b915061317b83613060565b92508261318b5761318a6131c5565b5b828206905092915050565b7f4e487b7100000000000000000000000000000000000000000000000000000000600052601160045260246000fd5b7f4e487b7100000000000000000000000000000000000000000000000000000000600052601260045260246000fd5b7f4e487b7100000000000000000000000000000000000000000000000000000000600052602260045260246000fd5b7f4e487b7100000000000000000000000000000000000000000000000000000000600052604160045260246000fd5b6000601f19601f8301169050919050565b7f455243373231456e756d657261626c653a206f776e657220696e646578206f7560008201527f74206f6620626f756e6473000000000000000000000000000000000000000000602082015250565b7f4552433732313a207472616e7366657220746f206e6f6e20455243373231526560008201527f63656976657220696d706c656d656e7465720000000000000000000000000000602082015250565b7f4552433732313a207472616e736665722066726f6d20696e636f72726563742060008201527f6f776e6572000000000000000000000000000000000000000000000000000000602082015250565b7f4552433732313a20746f6b656e20616c7265616479206d696e74656400000000600082015250565b7f4552433732313a207472616e7366657220746f20746865207a65726f2061646460008201527f7265737300000000000000000000000000000000000000000000000000000000602082015250565b7f4552433732313a20617070726f766520746f2063616c6c657200000000000000600082015250565b7f4552433732313a206f70657261746f7220717565727920666f72206e6f6e657860008201527f697374656e7420746f6b656e0000000000000000000000000000000000000000602082015250565b7f4552433732313a20617070726f76652063616c6c6572206973206e6f74206f7760008201527f6e6572206e6f7220617070726f76656420666f7220616c6c0000000000000000602082015250565b7f4552433732313a2062616c616e636520717565727920666f7220746865207a6560008201527f726f206164647265737300000000000000000000000000000000000000000000602082015250565b7f4552433732313a206f776e657220717565727920666f72206e6f6e657869737460008201527f656e7420746f6b656e0000000000000000000000000000000000000000000000602082015250565b7f45524337323155524953746f726167653a2055524920736574206f66206e6f6e60008201527f6578697374656e7420746f6b656e000000000000000000000000000000000000602082015250565b7f4552433732313a206d696e7420746f20746865207a65726f2061646472657373600082015250565b7f45524337323155524953746f726167653a2055524920717565727920666f722060008201527f6e6f6e6578697374656e7420746f6b656e000000000000000000000000000000602082015250565b7f4552433732313a20617070726f76656420717565727920666f72206e6f6e657860008201527f697374656e7420746f6b656e0000000000000000000000000000000000000000602082015250565b7f4552433732314d657461646174613a2055524920717565727920666f72206e6f60008201527f6e6578697374656e7420746f6b656e0000000000000000000000000000000000602082015250565b7f4552433732313a20617070726f76616c20746f2063757272656e74206f776e6560008201527f7200000000000000000000000000000000000000000000000000000000000000602082015250565b7f4552433732313a207472616e736665722063616c6c6572206973206e6f74206f60008201527f776e6572206e6f7220617070726f766564000000000000000000000000000000602082015250565b7f455243373231456e756d657261626c653a20676c6f62616c20696e646578206f60008201527f7574206f6620626f756e64730000000000000000000000000000000000000000602082015250565b61378881612fe8565b811461379357600080fd5b50565b61379f81612ffa565b81146137aa57600080fd5b50565b6137b681613006565b81146137c157600080fd5b50565b6137cd81613032565b81146137d857600080fd5b50565b6137e481613060565b81146137ef57600080fd5b50565b6137fb8161306a565b811461380657600080fd5b5056fea26469706673582212204b005875fab0b2b85077ddbfe89c400161683da756f8ea5556dd1847369aa29964736f6c63430008010033",
  "immutableReferences": {},
  "source": "// https://eips.ethereum.org/EIPS/eip-721\r\n// https://docs.openzeppelin.com/contracts/4.x/erc721\r\n\r\n// SPDX-License-Identifier: MIT\r\npragma solidity ^0.8.0;\r\n\r\nimport \"@openzeppelin/contracts/token/ERC721/extensions/ERC721URIStorage.sol\";\r\nimport \"@openzeppelin/contracts/utils/Counters.sol\";\r\nimport \"@openzeppelin/contracts/token/ERC721/extensions/ERC721Enumerable.sol\";\r\n\r\n\r\ncontract Nft_init is ERC721URIStorage, ERC721Enumerable, IERC721Receiver {\r\n    using Counters for Counters.Counter;\r\n    Counters.Counter private _tokenIds;\r\n\r\n    constructor() ERC721(\"GameItem\", \"ITM\") {}\r\n\r\n    struct Sale {\r\n        uint8 _maturity; \r\n        uint256 price;\r\n        uint256 earnest;\r\n        uint16 _expiration;\r\n    }\r\n\r\n    Sale[] public sales;\r\n\r\n    function awardItem(address player, string memory tokenURI)\r\n        public\r\n        returns (uint256)\r\n    {\r\n        uint256 newItemId = _tokenIds.current();\r\n        _mint(player, newItemId);\r\n        _setTokenURI(newItemId, tokenURI);\r\n\r\n        _tokenIds.increment();\r\n        return newItemId;\r\n    }\r\n    function onERC721Received(\r\n        address operator, \r\n        address from, \r\n        uint256 tokenId, \r\n        bytes calldata data) external pure override returns (bytes4) {        \r\n        return IERC721Receiver.onERC721Received.selector;\r\n    } \r\n    function _beforeTokenTransfer(\r\n        address from,\r\n        address to,\r\n        uint256 tokenId\r\n    ) internal override(ERC721, ERC721Enumerable) {\r\n        super._beforeTokenTransfer(from, to, tokenId);\r\n    }\r\n\r\n    function _burn(uint256 tokenId)\r\n        internal\r\n        override(ERC721, ERC721URIStorage)\r\n    {\r\n        super._burn(tokenId);\r\n    }\r\n\r\n    function supportsInterface(bytes4 interfaceId)\r\n        public\r\n        view\r\n        override(ERC721, ERC721Enumerable)\r\n        returns (bool)\r\n    {\r\n        return super.supportsInterface(interfaceId);\r\n    }\r\n\r\n    function tokenURI(uint256 tokenId)\r\n        public\r\n        view\r\n        override(ERC721, ERC721URIStorage)\r\n        returns (string memory)\r\n    {\r\n        return super.tokenURI(tokenId);\r\n    }\r\n\r\n    function initiateAuction(uint256 _tokenId, uint8 _maturity, uint256 _price, uint256 _earnest, uint16 _expiration) external {\r\n        require(\r\n            _isApprovedOrOwner(_msgSender(), _tokenId),\r\n            \"ERC721: transfer caller is not owner nor approved\"\r\n        );\r\n        sales.push(Sale( _maturity,  _price,  _earnest,  _expiration));\r\n        safeTransferFrom(msg.sender, address(this), _tokenId);\r\n    }\r\n}\r\n",
  "sourcePath": "C:\\Users\\daniel\\repos\\blockchain\\HackMoney\\contracts\\Nft_init.sol",
  "compiler": {
    "name": "solc",
    "version": "0.8.1+commit.df193b15.Emscripten.clang"
  },
  "schemaVersion": "3.4.7",
  "updatedAt": "2022-05-22T18:01:24.764Z",
  "networkType": "ethereum",
  "devdoc": {
    "kind": "dev",
    "methods": {
      "approve(address,uint256)": {
        "details": "See {IERC721-approve}."
      },
      "balanceOf(address)": {
        "details": "See {IERC721-balanceOf}."
      },
      "getApproved(uint256)": {
        "details": "See {IERC721-getApproved}."
      },
      "isApprovedForAll(address,address)": {
        "details": "See {IERC721-isApprovedForAll}."
      },
      "name()": {
        "details": "See {IERC721Metadata-name}."
      },
      "onERC721Received(address,address,uint256,bytes)": {
        "details": "Whenever an {IERC721} `tokenId` token is transferred to this contract via {IERC721-safeTransferFrom} by `operator` from `from`, this function is called. It must return its Solidity selector to confirm the token transfer. If any other value is returned or the interface is not implemented by the recipient, the transfer will be reverted. The selector can be obtained in Solidity with `IERC721Receiver.onERC721Received.selector`."
      },
      "ownerOf(uint256)": {
        "details": "See {IERC721-ownerOf}."
      },
      "safeTransferFrom(address,address,uint256)": {
        "details": "See {IERC721-safeTransferFrom}."
      },
      "safeTransferFrom(address,address,uint256,bytes)": {
        "details": "See {IERC721-safeTransferFrom}."
      },
      "setApprovalForAll(address,bool)": {
        "details": "See {IERC721-setApprovalForAll}."
      },
      "symbol()": {
        "details": "See {IERC721Metadata-symbol}."
      },
      "tokenByIndex(uint256)": {
        "details": "See {IERC721Enumerable-tokenByIndex}."
      },
      "tokenOfOwnerByIndex(address,uint256)": {
        "details": "See {IERC721Enumerable-tokenOfOwnerByIndex}."
      },
      "totalSupply()": {
        "details": "See {IERC721Enumerable-totalSupply}."
      },
      "transferFrom(address,address,uint256)": {
        "details": "See {IERC721-transferFrom}."
      }
    },
    "version": 1
  },
  "userdoc": {
    "kind": "user",
    "methods": {},
    "version": 1
  }
}